:100000000C9434000C9448010C9446000C94460067
:100010000C9446000C9446000C9446000C94460048
:100020000C9446000C9446000C9446000C94460038
:100030000C9446000C9446000C9446000C94460028
:100040000C9446000C9446000C9446000C94460018
:100050000C9446000C9446000C9446000C94460008
:100060000C9446000C94460011241FBECFEFD8E03C
:10007000DEBFCDBF21E0A0E0B1E001C01D92A43001
:10008000B207E1F70E9448000C9496010C9400001E
:100090008FEF84B91AB881E0809369008DBB7894A2
:1000A000109285001092840099E09093810091EA6B
:1000B000909380008093B10083E88093B00080E645
:1000C00080937C0087E880937A00EAE7F0E0808103
:1000D0008064808380917A0086FDFCCF80917900D6
:1000E00090E09093010180930001813891050CF418
:1000F00066C0109203011092020113C09093890010
:10010000809388008FE59DE60197F1F700C000001D
:1001100080910201909103010196909303018093D5
:10012000020180910201909103018F3F910534F308
:10013000109289001092880010920301109202011F
:1001400013C090938B0080938A008FE59DE6019702
:10015000F1F700C000008091020190910301019627
:100160009093030180930201809102019091030119
:100170008F3F910534F310928B0010928A001092F9
:1001800003011092020111C08093B3008FE59DE638
:100190000197F1F700C000008091020190910301E6
:1001A0000196909303018093020180910201909146
:1001B00003018F3F910544F31092B30086CF8FEF78
:1001C00090E0909303018093020113C09093890003
:1001D000809388008FE59DE60197F1F700C000004D
:1001E0008091020190910301019790930301809304
:1001F0000201809102019091030199233CF7109232
:100200008900109288008FEF90E090930301809313
:10021000020113C090938B0080938A008FE59DE6C6
:100220000197F1F700C00000809102019091030155
:1002300001979093030180930201809102019091B4
:10024000030199233CF710928B0010928A008FEFE4
:1002500090E0909303018093020111C08093B3005A
:100260008FE59DE60197F1F700C000008091020143
:100270009091030101979093030180930201809173
:1002800002019091030199234CF71092B3001DCF06
:100290001F920F920FB60F9211242F933F934F93FB
:1002A0008F939F93AF93BF93CF93DF93EF93FF937E
:1002B00081E090E028C0C8E8D0E02FEF30E039833B
:1002C0002883AAE8B0E011963C932E93E3EBF0E08C
:1002D0002FEF20832FEF39E648E121503040404096
:1002E000E1F700C000001982188211961C921E923C
:1002F00010822FEF39E648E1215030404040E1F7CD
:1003000000C00000019682309105ACF2FF91EF91A0
:10031000DF91CF91BF91AF919F918F914F913F917D
:100320002F910F900FBE0F901F901895F894FFCF4C
:00000001FF
