S00C00004C6162352E73726563D4
S11300000C9434000C943E000C943E000C943E007E
S11300100C943E000C943E000C943E000C943E0064
S11300200C943E000C943E000C943E000C9455003D
S11300300C943E000C943E000C943E000C943E0044
S11300400C943E000C943E000C943E000C943E0034
S11300500C943E000C943E000C943E000C943E0024
S11300600C943E000C943E0011241FBECFEFD8E048
S1130070DEBFCDBF0E9440000C9476000C940000BB
S11300808FEF8AB98BB9109285001092840082E0B8
S113009080936F0089E0809381008FEF9FEF9093AE
S11300A08900809388007894FFCF1F920F920FB637
S11300B00F9211248F939F938BB18F3F39F488EB68
S11300C09BE0909389008093880006C084E690E0CA
S11300D090938900809388008BB180958BB99F9110
S11300E08F910F900FBE0F901F901895F894FFCF2B
S9030000FC
