:100000000C9434000C9446000C9446000C9446006A
:100010000C9446000C9446000C9446000C94460048
:100020000C9446000C9446000C9446000C94460038
:100030000C9446000C9446000C9446000C94460028
:100040000C9446000C9446000C9446000C94460018
:100050000C9446000C9463000C9446000C944600EB
:100060000C9446000C94460011241FBECFEFD8E03C
:10007000DEBFCDBF21E0A0E0B1E001C01D92A43001
:10008000B207E1F70E9448000C94E2000C940000D3
:100090008FEF84B980E480937C008FEC80937A00AA
:1000A00017B889E08093810081E08093B10083EAF2
:1000B0008093800083E88093B000109289001092B2
:1000C00088007894FFCF1F920F920FB60F921124E1
:1000D0002F933F935F936F937F938F939F93AF93F0
:1000E000BF9380917800282F30E030930301209354
:1000F000020190917900892F90E090930101809303
:100100000001982F8827820F931F90938900809376
:10011000880020E030E03091000180910201909150
:100120000301820F931F90938B0080938A0020E03D
:1001300030E0309100018091020190910301820F23
:10014000931F982F80E06FEF73E00E94BA006093D6
:10015000B3008FEC80937A00BF91AF919F918F9104
:100160007F916F915F913F912F910F900FBE0F90F4
:100170001F90189597FB072E16F4009407D077FD73
:1001800009D00E94CE0007FC05D03EF490958195E1
:100190009F4F0895709561957F4F0895AA1BBB1BD3
:1001A00051E107C0AA1FBB1FA617B70710F0A61B77
:1001B000B70B881F991F5A95A9F780959095BC0198
:0801C000CD010895F894FFCF72
:00000001FF
