S00D00004C616220382E73726563B0
S11300000C9434000C94D4010C9451000C945100C1
S11300100C9451000C9451000C9451000C94510018
S11300200C9451000C9451000C9451000C94230234
S11300300C9451000C9451000C9451000C945100F8
S11300400C9451000C9451000C9451000C945100E8
S11300500C9451000C9451000C9451000C945100D8
S11300600C9451000C94510011241FBECFEFD8E022
S1130070DEBFCDBF11E0A0E0B1E0E8E6F4E002C0ED
S113008005900D92A230B107D9F721E0A2E0B1E0CA
S113009001C01D92A430B207E1F70E9453000C94F2
S11300A032020C940000F8948FEF8AB984B917B81F
S11300B081E08DBB83E080936900E0E8F0E080811B
S11300C0816A8083E1E8F0E0808189608083E0EBED
S11300D0F0E0808183688083E1EBF0E080818160DF
S11300E08083ECE7F0E010828081806480838081EB
S11300F08062808387E880937A007894EAE7F0E06E
S113010080818064808380917A0086FDFCCF809119
S11301107900813808F0A1C080910001909101011B
S11301208130910591F580910201909103019093A2
S113013089008093880010928B0010928A0010929C
S1130140B3002FEF89EF90E0215080409040E1F719
S113015000C00000809102019091030101969093E8
S11301600301809302018F3F910544F21092030131
S113017010920201109289001092880082E090E0AF
S11301809093010180930001B9CF8230910599F5D4
S113019010928900109288008091020190910301CD
S11301A090938B0080938A001092B3002FEF89EF15
S11301B090E0215080409040E1F700C00000809121
S11301C0020190910301019690930301809302012F
S11301D08F3F91050CF492CF10920301109202010B
S11301E010928B0010928A0083E090E090930101BA
S11301F08093000183CF039709F080CF1092890088
S11302001092880010928B0010928A008091020153
S11302108093B3002FEF89EF90E02150804090400D
S1130220E1F700C000008091020190910301019662
S113023090930301809302018F3F91050CF45ECFEC
S113024010920301109202011092B30081E090E039
S1130250909301018093000151CF809179008138FE
S113026008F44CCF809100019091010181309105F7
S113027079F5109289001092880010928B001092E8
S11302808A00809102018093B3002FEF89EF90E000
S1130290215080409040E1F700C0000080910201AD
S11302A090910301019690930301809302018F3F83
S11302B091050CF423CF10920301109202011092C5
S11302C0B30082E090E0909301018093000116CF87
S11302D08230910599F510928900109288008091DE
S11302E002019091030190938B0080938A001092F5
S11302F0B3002FEF89EF90E0215080409040E1F768
S113030000C0000080910201909103010196909336
S11303100301809302018F3F91050CF4EFCE1092FC
S113032003011092020110928B0010928A0083E064
S113033090E09093010180930001E0CE039709F0CF
S1130340DDCE809102019091030190938900809306
S1130350880010928B0010928A001092B3002FEF45
S113036089EF90E0215080409040E1F700C0000008
S1130370809102019091030101969093030180936F
S113038002018F3F91050CF4B9CE10920301109233
S11303900201109289001092880081E090E090930D
S11303A0010180930001AACE1F920F920FB60F9203
S11303B011242F933F934F938F939F93AF93BF93A6
S11303C0CF93DF93EF93FF93F89480E090E028C0FD
S11303D0C8E8D0E02FEF30E039832883AAE8B0E002
S11303E011963C932E93E3EBF0E02FEF20832FEF55
S11303F033EC49E0215030404040E1F700C00000B8
S11304001982188211961C921E9210822FEF33ECDF
S113041049E0215030404040E1F700C0000001961F
S113042082309105ACF2FF91EF91DF91CF91BF91B2
S1130430AF919F918F914F913F912F910F900FBE4C
S11304400F901F9018951F920F920FB60F921124C0
S11304508F9385B1809585B98F910F900FBE0F90C2
S10B04601F901895F894FFCFDA
S105046801008D
S9030000FC
