:100000000C9434000C9446000C9446000C9446006A
:100010000C9446000C9446000C9446000C94460048
:100020000C9446000C9446000C9446000C94460038
:100030000C9446000C9446000C9446000C94460028
:100040000C9446000C9446000C9446000C94460018
:100050000C9446000C9453000C9446000C944600FB
:100060000C9446000C94460011241FBECFEFD8E03C
:10007000DEBFCDBF21E0A0E0B1E001C01D92A23003
:10008000B207E1F70E9448000C946E000C94000047
:100090008FEF84B980E480937C008FEC80937A00AA
:1000A00017B87894FFCF1F920F920FB60F921124BA
:1000B0008F939F938091780085B98091790090E02B
:1000C00090930101809300018FEC80937A009F91BF
:1000D0008F910F900FBE0F901F901895F894FFCF3F
:00000001FF
