S01700004763634170706C69636174696F6E322E737265635A
S11300000C9434000C9489000C943E000C943E0033
S11300100C943E000C943E000C943E000C943E0064
S11300200C943E000C943E000C943E000C943E0054
S11300300C943E000C943E000C943E000C943E0044
S11300400C943E000C943E000C943E000C943E0034
S11300500C943E000C943E000C943E000C943E0024
S11300600C943E000C943E0011241FBECFEFD8E048
S1130070DEBFCDBF0E9440000C94B9000C94000078
S11300808FEF84B98AB981E08DBB83E080936900E6
S1130090789482E085B92FEF89E698E12150804079
S11300A09040E1F700C0000015B82FEF89E698E111
S11300B0215080409040E1F700C0000084E085B901
S11300C02FEF89E698E1215080409040E1F700C08D
S11300D0000015B82FEF89E698E121508040904048
S11300E0E1F700C0000088E085B92FEF89E698E1C8
S11300F0215080409040E1F700C0000015B82FEF78
S113010089E698E1215080409040E1F700C000006A
S1130110C0CF1F920F920FB60F9211242F933F93CB
S11301204F938F939F9380E090E016C02FEF25B9F3
S11301302FEF39E648E1215030404040E1F700C05C
S1130140000015B82FEF39E648E121503040404017
S1130150E1F700C000000196181619063CF79F91BC
S11301608F914F913F912F910F900FBE0F901F9041
S10901701895F894FFCF7E
S9030000FC
