S01700004763634170706C69636174696F6E352E7372656357
S11300000C9434000C943E000C943E000C943E007E
S11300100C943E000C943E000C943E000C943E0064
S11300200C943E000C943E000C943E000C943E0054
S11300300C943E000C943E000C943E000C943E0044
S11300400C943E000C943E000C943E000C943E0034
S11300500C943E000C943E000C943E000C943E0024
S11300600C943E000C943E0011241FBECFEFD8E048
S1130070DEBFCDBF0E9440000C945F000C940000D2
S11300808FEF84B989E08093810083EC80938000B2
S113009087EF93E090938900809388002FEF80E7A7
S11300A092E0215080409040E1F700C00000E8E871
S11300B0F0E080819181019791838083EFCFF89460
S10500C0FFCF6C
S9030000FC
